{
  "contractName": "CryptoKitties",
  "abi": [
    {
      "inputs": [
        {
          "internalType": "address",
          "name": "_VRFCoordinator",
          "type": "address"
        },
        {
          "internalType": "address",
          "name": "_LinkToken",
          "type": "address"
        },
        {
          "internalType": "bytes32",
          "name": "_keyhash",
          "type": "bytes32"
        }
      ],
      "stateMutability": "nonpayable",
      "type": "constructor"
    },
    {
      "anonymous": false,
      "inputs": [
        {
          "indexed": true,
          "internalType": "address",
          "name": "owner",
          "type": "address"
        },
        {
          "indexed": true,
          "internalType": "address",
          "name": "approved",
          "type": "address"
        },
        {
          "indexed": true,
          "internalType": "uint256",
          "name": "tokenId",
          "type": "uint256"
        }
      ],
      "name": "Approval",
      "type": "event"
    },
    {
      "anonymous": false,
      "inputs": [
        {
          "indexed": true,
          "internalType": "address",
          "name": "owner",
          "type": "address"
        },
        {
          "indexed": true,
          "internalType": "address",
          "name": "operator",
          "type": "address"
        },
        {
          "indexed": false,
          "internalType": "bool",
          "name": "approved",
          "type": "bool"
        }
      ],
      "name": "ApprovalForAll",
      "type": "event"
    },
    {
      "anonymous": false,
      "inputs": [
        {
          "indexed": true,
          "internalType": "address",
          "name": "previousOwner",
          "type": "address"
        },
        {
          "indexed": true,
          "internalType": "address",
          "name": "newOwner",
          "type": "address"
        }
      ],
      "name": "OwnershipTransferred",
      "type": "event"
    },
    {
      "anonymous": false,
      "inputs": [
        {
          "indexed": true,
          "internalType": "address",
          "name": "from",
          "type": "address"
        },
        {
          "indexed": true,
          "internalType": "address",
          "name": "to",
          "type": "address"
        },
        {
          "indexed": true,
          "internalType": "uint256",
          "name": "tokenId",
          "type": "uint256"
        }
      ],
      "name": "Transfer",
      "type": "event"
    },
    {
      "inputs": [],
      "name": "LinkToken",
      "outputs": [
        {
          "internalType": "address",
          "name": "",
          "type": "address"
        }
      ],
      "stateMutability": "view",
      "type": "function",
      "constant": true
    },
    {
      "inputs": [],
      "name": "VRFCoordinator",
      "outputs": [
        {
          "internalType": "address",
          "name": "",
          "type": "address"
        }
      ],
      "stateMutability": "view",
      "type": "function",
      "constant": true
    },
    {
      "inputs": [
        {
          "internalType": "address",
          "name": "to",
          "type": "address"
        },
        {
          "internalType": "uint256",
          "name": "tokenId",
          "type": "uint256"
        }
      ],
      "name": "approve",
      "outputs": [],
      "stateMutability": "nonpayable",
      "type": "function"
    },
    {
      "inputs": [
        {
          "internalType": "address",
          "name": "owner",
          "type": "address"
        }
      ],
      "name": "balanceOf",
      "outputs": [
        {
          "internalType": "uint256",
          "name": "",
          "type": "uint256"
        }
      ],
      "stateMutability": "view",
      "type": "function",
      "constant": true
    },
    {
      "inputs": [],
      "name": "baseURI",
      "outputs": [
        {
          "internalType": "string",
          "name": "",
          "type": "string"
        }
      ],
      "stateMutability": "view",
      "type": "function",
      "constant": true
    },
    {
      "inputs": [
        {
          "internalType": "uint256",
          "name": "tokenId",
          "type": "uint256"
        }
      ],
      "name": "getApproved",
      "outputs": [
        {
          "internalType": "address",
          "name": "",
          "type": "address"
        }
      ],
      "stateMutability": "view",
      "type": "function",
      "constant": true
    },
    {
      "inputs": [
        {
          "internalType": "address",
          "name": "owner",
          "type": "address"
        },
        {
          "internalType": "address",
          "name": "operator",
          "type": "address"
        }
      ],
      "name": "isApprovedForAll",
      "outputs": [
        {
          "internalType": "bool",
          "name": "",
          "type": "bool"
        }
      ],
      "stateMutability": "view",
      "type": "function",
      "constant": true
    },
    {
      "inputs": [],
      "name": "keyHash",
      "outputs": [
        {
          "internalType": "bytes32",
          "name": "",
          "type": "bytes32"
        }
      ],
      "stateMutability": "view",
      "type": "function",
      "constant": true
    },
    {
      "inputs": [
        {
          "internalType": "uint256",
          "name": "",
          "type": "uint256"
        }
      ],
      "name": "kitties",
      "outputs": [
        {
          "internalType": "uint256",
          "name": "strength",
          "type": "uint256"
        },
        {
          "internalType": "uint256",
          "name": "loyality",
          "type": "uint256"
        },
        {
          "internalType": "uint256",
          "name": "stamina",
          "type": "uint256"
        },
        {
          "internalType": "uint256",
          "name": "intelligence",
          "type": "uint256"
        },
        {
          "internalType": "string",
          "name": "name",
          "type": "string"
        }
      ],
      "stateMutability": "view",
      "type": "function",
      "constant": true
    },
    {
      "inputs": [],
      "name": "name",
      "outputs": [
        {
          "internalType": "string",
          "name": "",
          "type": "string"
        }
      ],
      "stateMutability": "view",
      "type": "function",
      "constant": true
    },
    {
      "inputs": [],
      "name": "owner",
      "outputs": [
        {
          "internalType": "address",
          "name": "",
          "type": "address"
        }
      ],
      "stateMutability": "view",
      "type": "function",
      "constant": true
    },
    {
      "inputs": [
        {
          "internalType": "uint256",
          "name": "tokenId",
          "type": "uint256"
        }
      ],
      "name": "ownerOf",
      "outputs": [
        {
          "internalType": "address",
          "name": "",
          "type": "address"
        }
      ],
      "stateMutability": "view",
      "type": "function",
      "constant": true
    },
    {
      "inputs": [
        {
          "internalType": "bytes32",
          "name": "requestId",
          "type": "bytes32"
        },
        {
          "internalType": "uint256",
          "name": "randomness",
          "type": "uint256"
        }
      ],
      "name": "rawFulfillRandomness",
      "outputs": [],
      "stateMutability": "nonpayable",
      "type": "function"
    },
    {
      "inputs": [],
      "name": "renounceOwnership",
      "outputs": [],
      "stateMutability": "nonpayable",
      "type": "function"
    },
    {
      "inputs": [
        {
          "internalType": "bytes32",
          "name": "",
          "type": "bytes32"
        }
      ],
      "name": "requestToCharacterName",
      "outputs": [
        {
          "internalType": "string",
          "name": "",
          "type": "string"
        }
      ],
      "stateMutability": "view",
      "type": "function",
      "constant": true
    },
    {
      "inputs": [
        {
          "internalType": "bytes32",
          "name": "",
          "type": "bytes32"
        }
      ],
      "name": "requestToSender",
      "outputs": [
        {
          "internalType": "address",
          "name": "",
          "type": "address"
        }
      ],
      "stateMutability": "view",
      "type": "function",
      "constant": true
    },
    {
      "inputs": [
        {
          "internalType": "address",
          "name": "from",
          "type": "address"
        },
        {
          "internalType": "address",
          "name": "to",
          "type": "address"
        },
        {
          "internalType": "uint256",
          "name": "tokenId",
          "type": "uint256"
        }
      ],
      "name": "safeTransferFrom",
      "outputs": [],
      "stateMutability": "nonpayable",
      "type": "function"
    },
    {
      "inputs": [
        {
          "internalType": "address",
          "name": "from",
          "type": "address"
        },
        {
          "internalType": "address",
          "name": "to",
          "type": "address"
        },
        {
          "internalType": "uint256",
          "name": "tokenId",
          "type": "uint256"
        },
        {
          "internalType": "bytes",
          "name": "_data",
          "type": "bytes"
        }
      ],
      "name": "safeTransferFrom",
      "outputs": [],
      "stateMutability": "nonpayable",
      "type": "function"
    },
    {
      "inputs": [
        {
          "internalType": "address",
          "name": "operator",
          "type": "address"
        },
        {
          "internalType": "bool",
          "name": "approved",
          "type": "bool"
        }
      ],
      "name": "setApprovalForAll",
      "outputs": [],
      "stateMutability": "nonpayable",
      "type": "function"
    },
    {
      "inputs": [
        {
          "internalType": "bytes4",
          "name": "interfaceId",
          "type": "bytes4"
        }
      ],
      "name": "supportsInterface",
      "outputs": [
        {
          "internalType": "bool",
          "name": "",
          "type": "bool"
        }
      ],
      "stateMutability": "view",
      "type": "function",
      "constant": true
    },
    {
      "inputs": [],
      "name": "symbol",
      "outputs": [
        {
          "internalType": "string",
          "name": "",
          "type": "string"
        }
      ],
      "stateMutability": "view",
      "type": "function",
      "constant": true
    },
    {
      "inputs": [
        {
          "internalType": "uint256",
          "name": "index",
          "type": "uint256"
        }
      ],
      "name": "tokenByIndex",
      "outputs": [
        {
          "internalType": "uint256",
          "name": "",
          "type": "uint256"
        }
      ],
      "stateMutability": "view",
      "type": "function",
      "constant": true
    },
    {
      "inputs": [
        {
          "internalType": "address",
          "name": "owner",
          "type": "address"
        },
        {
          "internalType": "uint256",
          "name": "index",
          "type": "uint256"
        }
      ],
      "name": "tokenOfOwnerByIndex",
      "outputs": [
        {
          "internalType": "uint256",
          "name": "",
          "type": "uint256"
        }
      ],
      "stateMutability": "view",
      "type": "function",
      "constant": true
    },
    {
      "inputs": [
        {
          "internalType": "uint256",
          "name": "tokenId",
          "type": "uint256"
        }
      ],
      "name": "tokenURI",
      "outputs": [
        {
          "internalType": "string",
          "name": "",
          "type": "string"
        }
      ],
      "stateMutability": "view",
      "type": "function",
      "constant": true
    },
    {
      "inputs": [],
      "name": "totalSupply",
      "outputs": [
        {
          "internalType": "uint256",
          "name": "",
          "type": "uint256"
        }
      ],
      "stateMutability": "view",
      "type": "function",
      "constant": true
    },
    {
      "inputs": [
        {
          "internalType": "address",
          "name": "from",
          "type": "address"
        },
        {
          "internalType": "address",
          "name": "to",
          "type": "address"
        },
        {
          "internalType": "uint256",
          "name": "tokenId",
          "type": "uint256"
        }
      ],
      "name": "transferFrom",
      "outputs": [],
      "stateMutability": "nonpayable",
      "type": "function"
    },
    {
      "inputs": [
        {
          "internalType": "address",
          "name": "newOwner",
          "type": "address"
        }
      ],
      "name": "transferOwnership",
      "outputs": [],
      "stateMutability": "nonpayable",
      "type": "function"
    },
    {
      "inputs": [
        {
          "internalType": "uint256",
          "name": "_userProvidedSeed",
          "type": "uint256"
        },
        {
          "internalType": "string",
          "name": "_name",
          "type": "string"
        }
      ],
      "name": "generateNewRandomKitty",
      "outputs": [
        {
          "internalType": "bytes32",
          "name": "",
          "type": "bytes32"
        }
      ],
      "stateMutability": "nonpayable",
      "type": "function"
    },
    {
      "inputs": [
        {
          "internalType": "uint256",
          "name": "tokenId",
          "type": "uint256"
        }
      ],
      "name": "getTokenURI",
      "outputs": [
        {
          "internalType": "string",
          "name": "",
          "type": "string"
        }
      ],
      "stateMutability": "view",
      "type": "function",
      "constant": true
    },
    {
      "inputs": [
        {
          "internalType": "uint256",
          "name": "tokenId",
          "type": "uint256"
        },
        {
          "internalType": "string",
          "name": "_tokenURI",
          "type": "string"
        }
      ],
      "name": "setTokenURI",
      "outputs": [],
      "stateMutability": "nonpayable",
      "type": "function"
    },
    {
      "inputs": [],
      "name": "getNumberOfKitties",
      "outputs": [
        {
          "internalType": "uint256",
          "name": "",
          "type": "uint256"
        }
      ],
      "stateMutability": "view",
      "type": "function",
      "constant": true
    },
    {
      "inputs": [
        {
          "internalType": "uint256",
          "name": "tokenId",
          "type": "uint256"
        }
      ],
      "name": "getKittyStats",
      "outputs": [
        {
          "internalType": "string",
          "name": "",
          "type": "string"
        },
        {
          "internalType": "uint256",
          "name": "",
          "type": "uint256"
        },
        {
          "internalType": "uint256",
          "name": "",
          "type": "uint256"
        },
        {
          "internalType": "uint256",
          "name": "",
          "type": "uint256"
        },
        {
          "internalType": "uint256",
          "name": "",
          "type": "uint256"
        }
      ],
      "stateMutability": "view",
      "type": "function",
      "constant": true
    }
  ],
  "bytecode": "0x60c06040523480156200001157600080fd5b506040516200468438038062004684833981810160405260608110156200003757600080fd5b8101908080519060200190929190805190602001909291908051906020019092919050505082826040518060400160405280600781526020017f4b697474696573000000000000000000000000000000000000000000000000008152506040518060400160405280600381526020017f4b49540000000000000000000000000000000000000000000000000000000000815250620000e26301ffc9a760e01b6200032060201b60201c565b8160069080519060200190620000fa92919062000431565b5080600790805190602001906200011392919062000431565b506200012c6380ac58cd60e01b6200032060201b60201c565b62000144635b5e139f60e01b6200032060201b60201c565b6200015c63780e9d6360e01b6200032060201b60201c565b50508173ffffffffffffffffffffffffffffffffffffffff1660a08173ffffffffffffffffffffffffffffffffffffffff1660601b815250508073ffffffffffffffffffffffffffffffffffffffff1660808173ffffffffffffffffffffffffffffffffffffffff1660601b8152505050506000620001e06200042960201b60201c565b905080600b60006101000a81548173ffffffffffffffffffffffffffffffffffffffff021916908373ffffffffffffffffffffffffffffffffffffffff1602179055508073ffffffffffffffffffffffffffffffffffffffff16600073ffffffffffffffffffffffffffffffffffffffff167f8be0079c531659141344cd1fd0a4f28419497f9722a3daafe3b4186f6b6457e060405160405180910390a35082600c60006101000a81548173ffffffffffffffffffffffffffffffffffffffff021916908373ffffffffffffffffffffffffffffffffffffffff16021790555081600d60006101000a81548173ffffffffffffffffffffffffffffffffffffffff021916908373ffffffffffffffffffffffffffffffffffffffff16021790555080600e8190555067016345785d8a0000600f81905550505050620004d7565b63ffffffff60e01b817bffffffffffffffffffffffffffffffffffffffffffffffffffffffff19161415620003bd576040517f08c379a000000000000000000000000000000000000000000000000000000000815260040180806020018281038252601c8152602001807f4552433136353a20696e76616c696420696e746572666163652069640000000081525060200191505060405180910390fd5b6001600080837bffffffffffffffffffffffffffffffffffffffffffffffffffffffff19167bffffffffffffffffffffffffffffffffffffffffffffffffffffffff1916815260200190815260200160002060006101000a81548160ff02191690831515021790555050565b600033905090565b828054600181600116156101000203166002900490600052602060002090601f016020900481019282601f106200047457805160ff1916838001178555620004a5565b82800160010185558215620004a5579182015b82811115620004a457825182559160200191906001019062000487565b5b509050620004b49190620004b8565b5090565b5b80821115620004d3576000816000905550600101620004b9565b5090565b60805160601c60a05160601c6141796200050b60003980611a0e5280612ccf525080611b845280612c9352506141796000f3fe608060405234801561001057600080fd5b50600436106101f05760003560e01c806361728f391161010f57806395d89b41116100a2578063c87b56dd11610071578063c87b56dd14610d67578063de6d566714610e0e578063e985e9c514610eb5578063f2fde38b14610f2f576101f0565b806395d89b4114610ab65780639f7688cd14610b39578063a22cb46514610c12578063b88d4fde14610c62576101f0565b8063715018a6116100de578063715018a61461097d5780638cc51eda146109875780638da5cb5b14610a4a57806394985ddd14610a7e576101f0565b806361728f391461082c5780636352211e1461084a5780636c0360eb146108a257806370a0823114610925576101f0565b8063274ac0c3116101875780633cc5e576116101565780633cc5e5761461072a57806342842e0e146107485780634f6ccce7146107b65780634f8e2fdf146107f8576101f0565b8063274ac0c3146105955780632f745c59146105ed57806333b608631461064f5780633bb3a24d14610683576101f0565b8063162094c4116101c3578063162094c41461038157806318160ddd146104465780631ea513161461046457806323b872dd14610527576101f0565b806301ffc9a7146101f557806306fdde0314610258578063081812fc146102db578063095ea7b314610333575b600080fd5b6102406004803603602081101561020b57600080fd5b8101908080357bffffffffffffffffffffffffffffffffffffffffffffffffffffffff19169060200190929190505050610f73565b60405180821515815260200191505060405180910390f35b610260610fda565b6040518080602001828103825283818151815260200191508051906020019080838360005b838110156102a0578082015181840152602081019050610285565b50505050905090810190601f1680156102cd5780820380516001836020036101000a031916815260200191505b509250505060405180910390f35b610307600480360360208110156102f157600080fd5b810190808035906020019092919050505061107c565b604051808273ffffffffffffffffffffffffffffffffffffffff16815260200191505060405180910390f35b61037f6004803603604081101561034957600080fd5b81019080803573ffffffffffffffffffffffffffffffffffffffff16906020019092919080359060200190929190505050611117565b005b6104446004803603604081101561039757600080fd5b8101908080359060200190929190803590602001906401000000008111156103be57600080fd5b8201836020820111156103d057600080fd5b803590602001918460018302840111640100000000831117156103f257600080fd5b91908080601f016020809104026020016040519081016040528093929190818152602001838380828437600081840152601f19601f82011690508083019250505050505050919291929050505061125b565b005b61044e6112cf565b6040518082815260200191505060405180910390f35b6104906004803603602081101561047a57600080fd5b81019080803590602001909291905050506112e0565b6040518080602001868152602001858152602001848152602001838152602001828103825287818151815260200191508051906020019080838360005b838110156104e85780820151818401526020810190506104cd565b50505050905090810190601f1680156105155780820380516001836020036101000a031916815260200191505b50965050505050505060405180910390f35b6105936004803603606081101561053d57600080fd5b81019080803573ffffffffffffffffffffffffffffffffffffffff169060200190929190803573ffffffffffffffffffffffffffffffffffffffff16906020019092919080359060200190929190505050611431565b005b6105c1600480360360208110156105ab57600080fd5b81019080803590602001909291905050506114a7565b604051808273ffffffffffffffffffffffffffffffffffffffff16815260200191505060405180910390f35b6106396004803603604081101561060357600080fd5b81019080803573ffffffffffffffffffffffffffffffffffffffff169060200190929190803590602001909291905050506114da565b6040518082815260200191505060405180910390f35b610657611535565b604051808273ffffffffffffffffffffffffffffffffffffffff16815260200191505060405180910390f35b6106af6004803603602081101561069957600080fd5b810190808035906020019092919050505061155b565b6040518080602001828103825283818151815260200191508051906020019080838360005b838110156106ef5780820151818401526020810190506106d4565b50505050905090810190601f16801561071c5780820380516001836020036101000a031916815260200191505b509250505060405180910390f35b61073261156d565b6040518082815260200191505060405180910390f35b6107b46004803603606081101561075e57600080fd5b81019080803573ffffffffffffffffffffffffffffffffffffffff169060200190929190803573ffffffffffffffffffffffffffffffffffffffff1690602001909291908035906020019092919050505061157a565b005b6107e2600480360360208110156107cc57600080fd5b810190808035906020019092919050505061159a565b6040518082815260200191505060405180910390f35b6108006115bd565b604051808273ffffffffffffffffffffffffffffffffffffffff16815260200191505060405180910390f35b6108346115e3565b6040518082815260200191505060405180910390f35b6108766004803603602081101561086057600080fd5b81019080803590602001909291905050506115e9565b604051808273ffffffffffffffffffffffffffffffffffffffff16815260200191505060405180910390f35b6108aa611620565b6040518080602001828103825283818151815260200191508051906020019080838360005b838110156108ea5780820151818401526020810190506108cf565b50505050905090810190601f1680156109175780820380516001836020036101000a031916815260200191505b509250505060405180910390f35b6109676004803603602081101561093b57600080fd5b81019080803573ffffffffffffffffffffffffffffffffffffffff1690602001909291905050506116c2565b6040518082815260200191505060405180910390f35b610985611797565b005b6109b36004803603602081101561099d57600080fd5b8101908080359060200190929190505050611907565b6040518086815260200185815260200184815260200183815260200180602001828103825283818151815260200191508051906020019080838360005b83811015610a0b5780820151818401526020810190506109f0565b50505050905090810190601f168015610a385780820380516001836020036101000a031916815260200191505b50965050505050505060405180910390f35b610a526119e2565b604051808273ffffffffffffffffffffffffffffffffffffffff16815260200191505060405180910390f35b610ab460048036036040811015610a9457600080fd5b810190808035906020019092919080359060200190929190505050611a0c565b005b610abe611adb565b6040518080602001828103825283818151815260200191508051906020019080838360005b83811015610afe578082015181840152602081019050610ae3565b50505050905090810190601f168015610b2b5780820380516001836020036101000a031916815260200191505b509250505060405180910390f35b610bfc60048036036040811015610b4f57600080fd5b810190808035906020019092919080359060200190640100000000811115610b7657600080fd5b820183602082011115610b8857600080fd5b80359060200191846001830284011164010000000083111715610baa57600080fd5b91908080601f016020809104026020016040519081016040528093929190818152602001838380828437600081840152601f19601f820116905080830192505050505050509192919290505050611b7d565b6040518082815260200191505060405180910390f35b610c6060048036036040811015610c2857600080fd5b81019080803573ffffffffffffffffffffffffffffffffffffffff169060200190929190803515159060200190929190505050611d32565b005b610d6560048036036080811015610c7857600080fd5b81019080803573ffffffffffffffffffffffffffffffffffffffff169060200190929190803573ffffffffffffffffffffffffffffffffffffffff1690602001909291908035906020019092919080359060200190640100000000811115610cdf57600080fd5b820183602082011115610cf157600080fd5b80359060200191846001830284011164010000000083111715610d1357600080fd5b91908080601f016020809104026020016040519081016040528093929190818152602001838380828437600081840152601f19601f820116905080830192505050505050509192919290505050611ee8565b005b610d9360048036036020811015610d7d57600080fd5b8101908080359060200190929190505050611f60565b6040518080602001828103825283818151815260200191508051906020019080838360005b83811015610dd3578082015181840152602081019050610db8565b50505050905090810190601f168015610e005780820380516001836020036101000a031916815260200191505b509250505060405180910390f35b610e3a60048036036020811015610e2457600080fd5b8101908080359060200190929190505050612231565b6040518080602001828103825283818151815260200191508051906020019080838360005b83811015610e7a578082015181840152602081019050610e5f565b50505050905090810190601f168015610ea75780820380516001836020036101000a031916815260200191505b509250505060405180910390f35b610f1760048036036040811015610ecb57600080fd5b81019080803573ffffffffffffffffffffffffffffffffffffffff169060200190929190803573ffffffffffffffffffffffffffffffffffffffff1690602001909291905050506122e1565b60405180821515815260200191505060405180910390f35b610f7160048036036020811015610f4557600080fd5b81019080803573ffffffffffffffffffffffffffffffffffffffff169060200190929190505050612375565b005b6000806000837bffffffffffffffffffffffffffffffffffffffffffffffffffffffff19167bffffffffffffffffffffffffffffffffffffffffffffffffffffffff1916815260200190815260200160002060009054906101000a900460ff169050919050565b606060068054600181600116156101000203166002900480601f0160208091040260200160405190810160405280929190818152602001828054600181600116156101000203166002900480156110725780601f1061104757610100808354040283529160200191611072565b820191906000526020600020905b81548152906001019060200180831161105557829003601f168201915b5050505050905090565b60006110878261256a565b6110dc576040517f08c379a000000000000000000000000000000000000000000000000000000000815260040180806020018281038252602c815260200180614012602c913960400191505060405180910390fd5b6004600083815260200190815260200160002060009054906101000a900473ffffffffffffffffffffffffffffffffffffffff169050919050565b6000611122826115e9565b90508073ffffffffffffffffffffffffffffffffffffffff168373ffffffffffffffffffffffffffffffffffffffff1614156111a9576040517f08c379a00000000000000000000000000000000000000000000000000000000081526004018080602001828103825260218152602001806140c26021913960400191505060405180910390fd5b8073ffffffffffffffffffffffffffffffffffffffff166111c8612587565b73ffffffffffffffffffffffffffffffffffffffff1614806111f757506111f6816111f1612587565b6122e1565b5b61124c576040517f08c379a0000000000000000000000000000000000000000000000000000000008152600401808060200182810382526038815260200180613f656038913960400191505060405180910390fd5b611256838361258f565b505050565b61126c611266612587565b83612648565b6112c1576040517f08c379a00000000000000000000000000000000000000000000000000000000081526004018080602001828103825260318152602001806140e36031913960400191505060405180910390fd5b6112cb828261273c565b5050565b60006112db60026127c6565b905090565b6060600080600080601286815481106112f557fe5b90600052602060002090600502016004016012878154811061131357fe5b9060005260206000209060050201600001546012888154811061133257fe5b9060005260206000209060050201600101546012898154811061135157fe5b90600052602060002090600502016002015460128a8154811061137057fe5b906000526020600020906005020160030154848054600181600116156101000203166002900480601f0160208091040260200160405190810160405280929190818152602001828054600181600116156101000203166002900480156114175780601f106113ec57610100808354040283529160200191611417565b820191906000526020600020905b8154815290600101906020018083116113fa57829003601f168201915b505050505094509450945094509450945091939590929450565b61144261143c612587565b82612648565b611497576040517f08c379a00000000000000000000000000000000000000000000000000000000081526004018080602001828103825260318152602001806140e36031913960400191505060405180910390fd5b6114a28383836127db565b505050565b60116020528060005260406000206000915054906101000a900473ffffffffffffffffffffffffffffffffffffffff1681565b600061152d82600160008673ffffffffffffffffffffffffffffffffffffffff1673ffffffffffffffffffffffffffffffffffffffff168152602001908152602001600020612a1e90919063ffffffff16565b905092915050565b600c60009054906101000a900473ffffffffffffffffffffffffffffffffffffffff1681565b606061156682611f60565b9050919050565b6000601280549050905090565b61159583838360405180602001604052806000815250611ee8565b505050565b6000806115b1836002612a3890919063ffffffff16565b50905080915050919050565b600d60009054906101000a900473ffffffffffffffffffffffffffffffffffffffff1681565b600e5481565b600061161982604051806060016040528060298152602001613fc7602991396002612a649092919063ffffffff16565b9050919050565b606060098054600181600116156101000203166002900480601f0160208091040260200160405190810160405280929190818152602001828054600181600116156101000203166002900480156116b85780601f1061168d576101008083540402835291602001916116b8565b820191906000526020600020905b81548152906001019060200180831161169b57829003601f168201915b5050505050905090565b60008073ffffffffffffffffffffffffffffffffffffffff168273ffffffffffffffffffffffffffffffffffffffff161415611749576040517f08c379a000000000000000000000000000000000000000000000000000000000815260040180806020018281038252602a815260200180613f9d602a913960400191505060405180910390fd5b611790600160008473ffffffffffffffffffffffffffffffffffffffff1673ffffffffffffffffffffffffffffffffffffffff168152602001908152602001600020612a83565b9050919050565b61179f612587565b73ffffffffffffffffffffffffffffffffffffffff166117bd6119e2565b73ffffffffffffffffffffffffffffffffffffffff1614611846576040517f08c379a00000000000000000000000000000000000000000000000000000000081526004018080602001828103825260208152602001807f4f776e61626c653a2063616c6c6572206973206e6f7420746865206f776e657281525060200191505060405180910390fd5b600073ffffffffffffffffffffffffffffffffffffffff16600b60009054906101000a900473ffffffffffffffffffffffffffffffffffffffff1673ffffffffffffffffffffffffffffffffffffffff167f8be0079c531659141344cd1fd0a4f28419497f9722a3daafe3b4186f6b6457e060405160405180910390a36000600b60006101000a81548173ffffffffffffffffffffffffffffffffffffffff021916908373ffffffffffffffffffffffffffffffffffffffff160217905550565b6012818154811061191457fe5b9060005260206000209060050201600091509050806000015490806001015490806002015490806003015490806004018054600181600116156101000203166002900480601f0160208091040260200160405190810160405280929190818152602001828054600181600116156101000203166002900480156119d85780601f106119ad576101008083540402835291602001916119d8565b820191906000526020600020905b8154815290600101906020018083116119bb57829003601f168201915b5050505050905085565b6000600b60009054906101000a900473ffffffffffffffffffffffffffffffffffffffff16905090565b7f000000000000000000000000000000000000000000000000000000000000000073ffffffffffffffffffffffffffffffffffffffff163373ffffffffffffffffffffffffffffffffffffffff1614611acd576040517f08c379a000000000000000000000000000000000000000000000000000000000815260040180806020018281038252601f8152602001807f4f6e6c7920565246436f6f7264696e61746f722063616e2066756c66696c6c0081525060200191505060405180910390fd5b611ad78282612a98565b5050565b606060078054600181600116156101000203166002900480601f016020809104026020016040519081016040528092919081815260200182805460018160011615610100020316600290048015611b735780601f10611b4857610100808354040283529160200191611b73565b820191906000526020600020905b815481529060010190602001808311611b5657829003601f168201915b5050505050905090565b6000600f547f000000000000000000000000000000000000000000000000000000000000000073ffffffffffffffffffffffffffffffffffffffff166370a08231306040518263ffffffff1660e01b8152600401808273ffffffffffffffffffffffffffffffffffffffff16815260200191505060206040518083038186803b158015611c0957600080fd5b505afa158015611c1d573d6000803e3d6000fd5b505050506040513d6020811015611c3357600080fd5b81019080805190602001909291905050501015611c9b576040517f08c379a00000000000000000000000000000000000000000000000000000000081526004018080602001828103825260308152602001806141146030913960400191505060405180910390fd5b6000611cac600e54600f5486612c8f565b905082601060008381526020019081526020016000209080519060200190611cd5929190613dd7565b50336011600083815260200190815260200160002060006101000a81548173ffffffffffffffffffffffffffffffffffffffff021916908373ffffffffffffffffffffffffffffffffffffffff1602179055508091505092915050565b611d3a612587565b73ffffffffffffffffffffffffffffffffffffffff168273ffffffffffffffffffffffffffffffffffffffff161415611ddb576040517f08c379a00000000000000000000000000000000000000000000000000000000081526004018080602001828103825260198152602001807f4552433732313a20617070726f766520746f2063616c6c65720000000000000081525060200191505060405180910390fd5b8060056000611de8612587565b73ffffffffffffffffffffffffffffffffffffffff1673ffffffffffffffffffffffffffffffffffffffff16815260200190815260200160002060008473ffffffffffffffffffffffffffffffffffffffff1673ffffffffffffffffffffffffffffffffffffffff16815260200190815260200160002060006101000a81548160ff0219169083151502179055508173ffffffffffffffffffffffffffffffffffffffff16611e95612587565b73ffffffffffffffffffffffffffffffffffffffff167f17307eab39ab6107e8899845ad3d59bd9653f200f220920489ca2b5937696c318360405180821515815260200191505060405180910390a35050565b611ef9611ef3612587565b83612648565b611f4e576040517f08c379a00000000000000000000000000000000000000000000000000000000081526004018080602001828103825260318152602001806140e36031913960400191505060405180910390fd5b611f5a84848484612e87565b50505050565b6060611f6b8261256a565b611fc0576040517f08c379a000000000000000000000000000000000000000000000000000000000815260040180806020018281038252602f815260200180614093602f913960400191505060405180910390fd5b6060600860008481526020019081526020016000208054600181600116156101000203166002900480601f0160208091040260200160405190810160405280929190818152602001828054600181600116156101000203166002900480156120695780601f1061203e57610100808354040283529160200191612069565b820191906000526020600020905b81548152906001019060200180831161204c57829003601f168201915b50505050509050606061207a611620565b905060008151141561209057819250505061222c565b6000825111156121615780826040516020018083805190602001908083835b602083106120d257805182526020820191506020810190506020830392506120af565b6001836020036101000a03801982511681845116808217855250505050505090500182805190602001908083835b602083106121235780518252602082019150602081019050602083039250612100565b6001836020036101000a038019825116818451168082178552505050505050905001925050506040516020818303038152906040529250505061222c565b8061216b85612ef9565b6040516020018083805190602001908083835b602083106121a1578051825260208201915060208101905060208303925061217e565b6001836020036101000a03801982511681845116808217855250505050505090500182805190602001908083835b602083106121f257805182526020820191506020810190506020830392506121cf565b6001836020036101000a03801982511681845116808217855250505050505090500192505050604051602081830303815290604052925050505b919050565b60106020528060005260406000206000915090508054600181600116156101000203166002900480601f0160208091040260200160405190810160405280929190818152602001828054600181600116156101000203166002900480156122d95780601f106122ae576101008083540402835291602001916122d9565b820191906000526020600020905b8154815290600101906020018083116122bc57829003601f168201915b505050505081565b6000600560008473ffffffffffffffffffffffffffffffffffffffff1673ffffffffffffffffffffffffffffffffffffffff16815260200190815260200160002060008373ffffffffffffffffffffffffffffffffffffffff1673ffffffffffffffffffffffffffffffffffffffff16815260200190815260200160002060009054906101000a900460ff16905092915050565b61237d612587565b73ffffffffffffffffffffffffffffffffffffffff1661239b6119e2565b73ffffffffffffffffffffffffffffffffffffffff1614612424576040517f08c379a00000000000000000000000000000000000000000000000000000000081526004018080602001828103825260208152602001807f4f776e61626c653a2063616c6c6572206973206e6f7420746865206f776e657281525060200191505060405180910390fd5b600073ffffffffffffffffffffffffffffffffffffffff168173ffffffffffffffffffffffffffffffffffffffff1614156124aa576040517f08c379a0000000000000000000000000000000000000000000000000000000008152600401808060200182810382526026815260200180613ec96026913960400191505060405180910390fd5b8073ffffffffffffffffffffffffffffffffffffffff16600b60009054906101000a900473ffffffffffffffffffffffffffffffffffffffff1673ffffffffffffffffffffffffffffffffffffffff167f8be0079c531659141344cd1fd0a4f28419497f9722a3daafe3b4186f6b6457e060405160405180910390a380600b60006101000a81548173ffffffffffffffffffffffffffffffffffffffff021916908373ffffffffffffffffffffffffffffffffffffffff16021790555050565b600061258082600261304090919063ffffffff16565b9050919050565b600033905090565b816004600083815260200190815260200160002060006101000a81548173ffffffffffffffffffffffffffffffffffffffff021916908373ffffffffffffffffffffffffffffffffffffffff160217905550808273ffffffffffffffffffffffffffffffffffffffff16612602836115e9565b73ffffffffffffffffffffffffffffffffffffffff167f8c5be1e5ebec7d5bd14f71427d1e84f3dd0314c0f7b2291e5b200ac8c7c3b92560405160405180910390a45050565b60006126538261256a565b6126a8576040517f08c379a000000000000000000000000000000000000000000000000000000000815260040180806020018281038252602c815260200180613f39602c913960400191505060405180910390fd5b60006126b3836115e9565b90508073ffffffffffffffffffffffffffffffffffffffff168473ffffffffffffffffffffffffffffffffffffffff16148061272257508373ffffffffffffffffffffffffffffffffffffffff1661270a8461107c565b73ffffffffffffffffffffffffffffffffffffffff16145b80612733575061273281856122e1565b5b91505092915050565b6127458261256a565b61279a576040517f08c379a000000000000000000000000000000000000000000000000000000000815260040180806020018281038252602c81526020018061403e602c913960400191505060405180910390fd5b806008600084815260200190815260200160002090805190602001906127c1929190613dd7565b505050565b60006127d48260000161305a565b9050919050565b8273ffffffffffffffffffffffffffffffffffffffff166127fb826115e9565b73ffffffffffffffffffffffffffffffffffffffff1614612867576040517f08c379a000000000000000000000000000000000000000000000000000000000815260040180806020018281038252602981526020018061406a6029913960400191505060405180910390fd5b600073ffffffffffffffffffffffffffffffffffffffff168273ffffffffffffffffffffffffffffffffffffffff1614156128ed576040517f08c379a0000000000000000000000000000000000000000000000000000000008152600401808060200182810382526024815260200180613eef6024913960400191505060405180910390fd5b6128f883838361306b565b61290360008261258f565b61295481600160008673ffffffffffffffffffffffffffffffffffffffff1673ffffffffffffffffffffffffffffffffffffffff16815260200190815260200160002061307090919063ffffffff16565b506129a681600160008573ffffffffffffffffffffffffffffffffffffffff1673ffffffffffffffffffffffffffffffffffffffff16815260200190815260200160002061308a90919063ffffffff16565b506129bd818360026130a49092919063ffffffff16565b50808273ffffffffffffffffffffffffffffffffffffffff168473ffffffffffffffffffffffffffffffffffffffff167fddf252ad1be2c89b69c2b068fc378daa952ba7f163c4a11628f55a4df523b3ef60405160405180910390a4505050565b6000612a2d83600001836130d9565b60001c905092915050565b600080600080612a4b866000018661315c565b915091508160001c8160001c9350935050509250929050565b6000612a77846000018460001b846131f5565b60001c90509392505050565b6000612a91826000016132eb565b9050919050565b60006012805490509050600060648381612aae57fe5b069050600060646127108581612ac057fe5b0681612ac857fe5b0490506000612710620f42408681612adc57fe5b0681612ae457fe5b0490506000620f42406305f5e1008781612afa57fe5b0681612b0257fe5b049050612b426011600089815260200190815260200160002060009054906101000a900473ffffffffffffffffffffffffffffffffffffffff16866132fc565b60126040518060a00160405280868152602001858152602001848152602001838152602001601060008b81526020019081526020016000208054600181600116156101000203166002900480601f016020809104026020016040519081016040528092919081815260200182805460018160011615610100020316600290048015612c0e5780601f10612be357610100808354040283529160200191612c0e565b820191906000526020600020905b815481529060010190602001808311612bf157829003601f168201915b50505050508152509080600181540180825580915050600190039060005260206000209060050201600090919091909150600082015181600001556020820151816001015560408201518160020155606082015181600301556080820151816004019080519060200190612c83929190613dd7565b50505050505050505050565b60007f000000000000000000000000000000000000000000000000000000000000000073ffffffffffffffffffffffffffffffffffffffff16634000aea07f000000000000000000000000000000000000000000000000000000000000000085878660405160200180838152602001828152602001925050506040516020818303038152906040526040518463ffffffff1660e01b8152600401808473ffffffffffffffffffffffffffffffffffffffff16815260200183815260200180602001828103825283818151815260200191508051906020019080838360005b83811015612d88578082015181840152602081019050612d6d565b50505050905090810190601f168015612db55780820380516001836020036101000a031916815260200191505b50945050505050602060405180830381600087803b158015612dd657600080fd5b505af1158015612dea573d6000803e3d6000fd5b505050506040513d6020811015612e0057600080fd5b8101908080519060200190929190505050506000612e33858430600a60008a81526020019081526020016000205461331a565b9050612e5c6001600a60008881526020019081526020016000205461337e90919063ffffffff16565b600a600087815260200190815260200160002081905550612e7d8582613406565b9150509392505050565b612e928484846127db565b612e9e8484848461343f565b612ef3576040517f08c379a0000000000000000000000000000000000000000000000000000000008152600401808060200182810382526032815260200180613e976032913960400191505060405180910390fd5b50505050565b60606000821415612f41576040518060400160405280600181526020017f3000000000000000000000000000000000000000000000000000000000000000815250905061303b565b600082905060005b60008214612f6b578080600101915050600a8281612f6357fe5b049150612f49565b60608167ffffffffffffffff81118015612f8457600080fd5b506040519080825280601f01601f191660200182016040528015612fb75781602001600182028036833780820191505090505b50905060006001830390508593505b6000841461303357600a8481612fd857fe5b0660300160f81b82828060019003935081518110612ff257fe5b60200101907effffffffffffffffffffffffffffffffffffffffffffffffffffffffffffff1916908160001a905350600a848161302b57fe5b049350612fc6565b819450505050505b919050565b6000613052836000018360001b613658565b905092915050565b600081600001805490509050919050565b505050565b6000613082836000018360001b61367b565b905092915050565b600061309c836000018360001b613763565b905092915050565b60006130d0846000018460001b8473ffffffffffffffffffffffffffffffffffffffff1660001b6137d3565b90509392505050565b60008183600001805490501161313a576040517f08c379a0000000000000000000000000000000000000000000000000000000008152600401808060200182810382526022815260200180613e756022913960400191505060405180910390fd5b82600001828154811061314957fe5b9060005260206000200154905092915050565b600080828460000180549050116131be576040517f08c379a0000000000000000000000000000000000000000000000000000000008152600401808060200182810382526022815260200180613ff06022913960400191505060405180910390fd5b60008460000184815481106131cf57fe5b906000526020600020906002020190508060000154816001015492509250509250929050565b600080846001016000858152602001908152602001600020549050600081141583906132bc576040517f08c379a00000000000000000000000000000000000000000000000000000000081526004018080602001828103825283818151815260200191508051906020019080838360005b83811015613281578082015181840152602081019050613266565b50505050905090810190601f1680156132ae5780820380516001836020036101000a031916815260200191505b509250505060405180910390fd5b508460000160018203815481106132cf57fe5b9060005260206000209060020201600101549150509392505050565b600081600001805490509050919050565b6133168282604051806020016040528060008152506138af565b5050565b600084848484604051602001808581526020018481526020018373ffffffffffffffffffffffffffffffffffffffff1681526020018281526020019450505050506040516020818303038152906040528051906020012060001c9050949350505050565b6000808284019050838110156133fc576040517f08c379a000000000000000000000000000000000000000000000000000000000815260040180806020018281038252601b8152602001807f536166654d6174683a206164646974696f6e206f766572666c6f77000000000081525060200191505060405180910390fd5b8091505092915050565b60008282604051602001808381526020018281526020019250505060405160208183030381529060405280519060200120905092915050565b60006134608473ffffffffffffffffffffffffffffffffffffffff16613920565b61346d5760019050613650565b60606135d763150b7a0260e01b613482612587565b888787604051602401808573ffffffffffffffffffffffffffffffffffffffff1681526020018473ffffffffffffffffffffffffffffffffffffffff16815260200183815260200180602001828103825283818151815260200191508051906020019080838360005b838110156135065780820151818401526020810190506134eb565b50505050905090810190601f1680156135335780820380516001836020036101000a031916815260200191505b5095505050505050604051602081830303815290604052907bffffffffffffffffffffffffffffffffffffffffffffffffffffffff19166020820180517bffffffffffffffffffffffffffffffffffffffffffffffffffffffff8381831617835250505050604051806060016040528060328152602001613e97603291398773ffffffffffffffffffffffffffffffffffffffff166139339092919063ffffffff16565b905060008180602001905160208110156135f057600080fd5b8101908080519060200190929190505050905063150b7a0260e01b7bffffffffffffffffffffffffffffffffffffffffffffffffffffffff1916817bffffffffffffffffffffffffffffffffffffffffffffffffffffffff191614925050505b949350505050565b600080836001016000848152602001908152602001600020541415905092915050565b6000808360010160008481526020019081526020016000205490506000811461375757600060018203905060006001866000018054905003905060008660000182815481106136c657fe5b90600052602060002001549050808760000184815481106136e357fe5b906000526020600020018190555060018301876001016000838152602001908152602001600020819055508660000180548061371b57fe5b6001900381819060005260206000200160009055905586600101600087815260200190815260200160002060009055600194505050505061375d565b60009150505b92915050565b600061376f838361394b565b6137c85782600001829080600181540180825580915050600190039060005260206000200160009091909190915055826000018054905083600101600084815260200190815260200160002081905550600190506137cd565b600090505b92915050565b600080846001016000858152602001908152602001600020549050600081141561387a578460000160405180604001604052808681526020018581525090806001815401808255809150506001900390600052602060002090600202016000909190919091506000820151816000015560208201518160010155505084600001805490508560010160008681526020019081526020016000208190555060019150506138a8565b8285600001600183038154811061388d57fe5b90600052602060002090600202016001018190555060009150505b9392505050565b6138b9838361396e565b6138c6600084848461343f565b61391b576040517f08c379a0000000000000000000000000000000000000000000000000000000008152600401808060200182810382526032815260200180613e976032913960400191505060405180910390fd5b505050565b600080823b905060008111915050919050565b60606139428484600085613b62565b90509392505050565b600080836001016000848152602001908152602001600020541415905092915050565b600073ffffffffffffffffffffffffffffffffffffffff168273ffffffffffffffffffffffffffffffffffffffff161415613a11576040517f08c379a00000000000000000000000000000000000000000000000000000000081526004018080602001828103825260208152602001807f4552433732313a206d696e7420746f20746865207a65726f206164647265737381525060200191505060405180910390fd5b613a1a8161256a565b15613a8d576040517f08c379a000000000000000000000000000000000000000000000000000000000815260040180806020018281038252601c8152602001807f4552433732313a20746f6b656e20616c7265616479206d696e7465640000000081525060200191505060405180910390fd5b613a996000838361306b565b613aea81600160008573ffffffffffffffffffffffffffffffffffffffff1673ffffffffffffffffffffffffffffffffffffffff16815260200190815260200160002061308a90919063ffffffff16565b50613b01818360026130a49092919063ffffffff16565b50808273ffffffffffffffffffffffffffffffffffffffff16600073ffffffffffffffffffffffffffffffffffffffff167fddf252ad1be2c89b69c2b068fc378daa952ba7f163c4a11628f55a4df523b3ef60405160405180910390a45050565b606082471015613bbd576040517f08c379a0000000000000000000000000000000000000000000000000000000008152600401808060200182810382526026815260200180613f136026913960400191505060405180910390fd5b613bc685613920565b613c38576040517f08c379a000000000000000000000000000000000000000000000000000000000815260040180806020018281038252601d8152602001807f416464726573733a2063616c6c20746f206e6f6e2d636f6e747261637400000081525060200191505060405180910390fd5b600060608673ffffffffffffffffffffffffffffffffffffffff1685876040518082805190602001908083835b60208310613c885780518252602082019150602081019050602083039250613c65565b6001836020036101000a03801982511681845116808217855250505050505090500191505060006040518083038185875af1925050503d8060008114613cea576040519150601f19603f3d011682016040523d82523d6000602084013e613cef565b606091505b5091509150613cff828286613d0b565b92505050949350505050565b60608315613d1b57829050613dd0565b600083511115613d2e5782518084602001fd5b816040517f08c379a00000000000000000000000000000000000000000000000000000000081526004018080602001828103825283818151815260200191508051906020019080838360005b83811015613d95578082015181840152602081019050613d7a565b50505050905090810190601f168015613dc25780820380516001836020036101000a031916815260200191505b509250505060405180910390fd5b9392505050565b828054600181600116156101000203166002900490600052602060002090601f016020900481019282601f10613e1857805160ff1916838001178555613e46565b82800160010185558215613e46579182015b82811115613e45578251825591602001919060010190613e2a565b5b509050613e539190613e57565b5090565b5b80821115613e70576000816000905550600101613e58565b509056fe456e756d657261626c655365743a20696e646578206f7574206f6620626f756e64734552433732313a207472616e7366657220746f206e6f6e20455243373231526563656976657220696d706c656d656e7465724f776e61626c653a206e6577206f776e657220697320746865207a65726f20616464726573734552433732313a207472616e7366657220746f20746865207a65726f2061646472657373416464726573733a20696e73756666696369656e742062616c616e636520666f722063616c6c4552433732313a206f70657261746f7220717565727920666f72206e6f6e6578697374656e7420746f6b656e4552433732313a20617070726f76652063616c6c6572206973206e6f74206f776e6572206e6f7220617070726f76656420666f7220616c6c4552433732313a2062616c616e636520717565727920666f7220746865207a65726f20616464726573734552433732313a206f776e657220717565727920666f72206e6f6e6578697374656e7420746f6b656e456e756d657261626c654d61703a20696e646578206f7574206f6620626f756e64734552433732313a20617070726f76656420717565727920666f72206e6f6e6578697374656e7420746f6b656e4552433732314d657461646174613a2055524920736574206f66206e6f6e6578697374656e7420746f6b656e4552433732313a207472616e73666572206f6620746f6b656e2074686174206973206e6f74206f776e4552433732314d657461646174613a2055524920717565727920666f72206e6f6e6578697374656e7420746f6b656e4552433732313a20617070726f76616c20746f2063757272656e74206f776e65724552433732313a207472616e736665722063616c6c6572206973206e6f74206f776e6572206e6f7220617070726f7665644e6f7420656e6f756768204c494e4b202d2066696c6c20636f6e74726163742077697468204c494e4b20544f4b454e53a2646970667358221220cad89499c1f39f47d7ae0a9ff5c6bd43296c8806bef5c90b8783880e42823a0164736f6c634300060c0033",
  "immutableReferences": {
    "492": [
      {
        "length": 32,
        "start": 7044
      },
      {
        "length": 32,
        "start": 11411
      }
    ],
    "494": [
      {
        "length": 32,
        "start": 6670
      },
      {
        "length": 32,
        "start": 11471
      }
    ]
  },
  "source": "pragma solidity ^0.6.2;\r\nimport \"@openzeppelin/contracts/token/ERC721/ERC721.sol\";\r\nimport \"@chainlink/contracts/src/v0.6/VRFConsumerBase.sol\";\r\nimport \"@openzeppelin/contracts/access/Ownable.sol\";\r\nimport \"@openzeppelin/contracts/utils/Strings.sol\";\r\n\r\ncontract CryptoKitties is ERC721, VRFConsumerBase, Ownable {\r\n    using SafeMath for uint256;\r\n    using Strings for string;\r\n\r\n    address public VRFCoordinator;\r\n    address public LinkToken;\r\n    bytes32 public keyHash;\r\n    uint256 internal fee;\r\n\r\n    mapping(bytes32 => string) public requestToCharacterName;\r\n    mapping(bytes32 => address) public requestToSender;\r\n\r\n\r\n    struct Kitty {\r\n        uint256 strength;\r\n        uint256 loyality;\r\n        uint256 stamina;\r\n        uint256 intelligence;\r\n        string name;\r\n    }\r\n\r\n    Kitty[] public kitties;\r\n\r\n    constructor(address _VRFCoordinator, address _LinkToken, bytes32 _keyhash) public\r\n            VRFConsumerBase(_VRFCoordinator, _LinkToken)\r\n            ERC721(\"Kitties\", \"KIT\") {\r\n\r\n        VRFCoordinator = _VRFCoordinator;\r\n        LinkToken = _LinkToken;\r\n        keyHash = _keyhash;\r\n\r\n        fee = 0.1 * 10 ** 18;\r\n    }\r\n\r\n    function generateNewRandomKitty(uint256 _userProvidedSeed, string memory _name) public returns (bytes32) {\r\n        require(\r\n            LINK.balanceOf(address(this)) >= fee,\r\n            \"Not enough LINK - fill contract with LINK TOKENS\"\r\n        );\r\n\r\n        bytes32 requestId = requestRandomness(keyHash, fee, _userProvidedSeed);\r\n        requestToCharacterName[requestId] = _name;\r\n        requestToSender[requestId] = msg.sender;\r\n        return requestId;\r\n    }\r\n\r\n    function fulfillRandomness(bytes32 requestId, uint256 randomNumber) internal override {\r\n        uint256 newId = kitties.length;\r\n        uint256 strength = (randomNumber % 100);\r\n        uint256 loyality = ((randomNumber % 10000) / 100 );\r\n        uint256 stamina = ((randomNumber % 1000000) / 10000 );\r\n        uint256 intelligence = ((randomNumber % 100000000) / 1000000 );\r\n\r\n        _safeMint(requestToSender[requestId], newId);\r\n\r\n        kitties.push(\r\n            Kitty(\r\n                strength,\r\n                loyality,\r\n                stamina,\r\n                intelligence,\r\n                requestToCharacterName[requestId]\r\n                )\r\n        );\r\n    }\r\n\r\n    function getTokenURI(uint256 tokenId) public view returns (string memory) {\r\n        return tokenURI(tokenId);\r\n    }\r\n\r\n    function setTokenURI(uint256 tokenId, string memory _tokenURI) public {\r\n        require(\r\n            _isApprovedOrOwner(_msgSender(), tokenId),\r\n            \"ERC721: transfer caller is not owner nor approved\"\r\n        );\r\n        _setTokenURI(tokenId, _tokenURI);\r\n    }\r\n\r\n    function getNumberOfKitties() public view returns (uint256) {\r\n        return kitties.length;\r\n    }\r\n\r\n   function getKittyStats(uint256 tokenId)\r\n        public\r\n        view\r\n        returns (\r\n            string memory,\r\n            uint256,\r\n            uint256,\r\n            uint256,\r\n            uint256\r\n        )\r\n    {\r\n        return (\r\n            kitties[tokenId].name,\r\n            kitties[tokenId].strength,\r\n            kitties[tokenId].loyality,\r\n            kitties[tokenId].stamina,\r\n            kitties[tokenId].intelligence\r\n        );\r\n    }\r\n\r\n    function sqrt(uint256 x) internal view returns (uint256 y) {\r\n        uint256 z = (x + 1) / 2;\r\n        y = x;\r\n        while (z < y) {\r\n            y = z;\r\n            z = (x / z + z) / 2;\r\n        }\r\n    }\r\n}",
  "sourcePath": "D:/Learning Tools & Techs/Blockchian-1/eth-dapp/crypto-assets/contracts/CryptoKitties.sol",
  "compiler": {
    "name": "solc",
    "version": "0.6.12+commit.27d51765.Emscripten.clang"
  },
  "schemaVersion": "3.4.0",
  "updatedAt": "2021-05-22T14:19:20.734Z",
  "networkType": "ethereum",
  "devdoc": {
    "kind": "dev",
    "methods": {
      "approve(address,uint256)": {
        "details": "See {IERC721-approve}."
      },
      "balanceOf(address)": {
        "details": "See {IERC721-balanceOf}."
      },
      "baseURI()": {
        "details": "Returns the base URI set via {_setBaseURI}. This will be automatically added as a prefix in {tokenURI} to each token's URI, or to the token ID if no specific URI is set for that token ID."
      },
      "getApproved(uint256)": {
        "details": "See {IERC721-getApproved}."
      },
      "isApprovedForAll(address,address)": {
        "details": "See {IERC721-isApprovedForAll}."
      },
      "name()": {
        "details": "See {IERC721Metadata-name}."
      },
      "owner()": {
        "details": "Returns the address of the current owner."
      },
      "ownerOf(uint256)": {
        "details": "See {IERC721-ownerOf}."
      },
      "renounceOwnership()": {
        "details": "Leaves the contract without owner. It will not be possible to call `onlyOwner` functions anymore. Can only be called by the current owner. NOTE: Renouncing ownership will leave the contract without an owner, thereby removing any functionality that is only available to the owner."
      },
      "safeTransferFrom(address,address,uint256)": {
        "details": "See {IERC721-safeTransferFrom}."
      },
      "safeTransferFrom(address,address,uint256,bytes)": {
        "details": "See {IERC721-safeTransferFrom}."
      },
      "setApprovalForAll(address,bool)": {
        "details": "See {IERC721-setApprovalForAll}."
      },
      "supportsInterface(bytes4)": {
        "details": "See {IERC165-supportsInterface}. Time complexity O(1), guaranteed to always use less than 30 000 gas."
      },
      "symbol()": {
        "details": "See {IERC721Metadata-symbol}."
      },
      "tokenByIndex(uint256)": {
        "details": "See {IERC721Enumerable-tokenByIndex}."
      },
      "tokenOfOwnerByIndex(address,uint256)": {
        "details": "See {IERC721Enumerable-tokenOfOwnerByIndex}."
      },
      "tokenURI(uint256)": {
        "details": "See {IERC721Metadata-tokenURI}."
      },
      "totalSupply()": {
        "details": "See {IERC721Enumerable-totalSupply}."
      },
      "transferFrom(address,address,uint256)": {
        "details": "See {IERC721-transferFrom}."
      },
      "transferOwnership(address)": {
        "details": "Transfers ownership of the contract to a new account (`newOwner`). Can only be called by the current owner."
      }
    },
    "version": 1
  },
  "userdoc": {
    "kind": "user",
    "methods": {},
    "version": 1
  }
}